:100000000C9435000C945D000C945D000C945D0024
:100010000C945D000C945D000C945D000C945D00EC
:100020000C945D000C945D000C945D000C945D00DC
:100030000C945D000C945D000C945D000C945D00CC
:100040000C94A7020C945D000C9475020C944F0262
:100050000C945D000C945D000C945D000C945D00AC
:100060000C945D000C945D00DE0311241FBECFEFE5
:10007000D8E0DEBFCDBF11E0A0E0B1E0EAE6F8E0F5
:1000800002C005900D92A631B107D9F721E0A6E193
:10009000B1E001C01D92A23CB207E1F710E0C5E358
:1000A000D0E004C02197FE010E942D04C433D10783
:1000B000C9F70E94F1020C9433040C940000AF9233
:1000C000BF92CF92DF92EF92FF920F931F93CF9345
:1000D000DF936C017B018B01040F151FEB015E01A7
:1000E000AE18BF08C017D10759F06991D601ED913C
:1000F000FC910190F081E02DC6010995892B79F7DB
:10010000C501DF91CF911F910F91FF90EF90DF908C
:10011000CF90BF90AF900895FC01538D448D252F53
:1001200030E0842F90E0821B930B541710F0CF9691
:10013000089501970895FC01918D828D981761F0C3
:10014000A28DAE0FBF2FB11D5D968C91928D9F5FDA
:100150009F73928F90E008958FEF9FEF0895FC01B9
:10016000918D828D981731F0828DE80FF11D858D6C
:1001700090E008958FEF9FEF0895FC01918D228DFF
:10018000892F90E0805C9F4F821B91098F73992784
:10019000089585E291E00E94BD0021E0892B09F4D9
:1001A00020E0822F089580E090E0892B29F00E94C2
:1001B000C90081110C9400000895FC01A48DA80FC2
:1001C000B92FB11DA35ABF4F2C91848D90E0019699
:1001D0008F739927848FA689B7892C93A089B189B9
:1001E0008C91837080648C93938D848D981306C05A
:1001F0000288F389E02D80818F7D80830895EF92BE
:10020000FF920F931F93CF93DF93EC0181E0888FD0
:100210009B8D8C8D98131AC0E889F989808185FFA0
:1002200015C09FB7F894EE89FF896083E889F98942
:1002300080818370806480839FBF81E090E0DF9144
:10024000CF911F910F91FF90EF900895F62E0B8D97
:1002500010E00F5F1F4F0F731127E02E8C8D8E1152
:100260000CC00FB607FCFACFE889F989808185FFB9
:10027000F5CFCE010E94DD00F1CFEB8DEC0FFD2F0D
:10028000F11DE35AFF4FF0829FB7F8940B8FEA8974
:10029000FB8980818062CFCFCF93DF93EC01888D83
:1002A0008823B9F0AA89BB89E889F9898C9185FDF1
:1002B00003C0808186FD0DC00FB607FCF7CF8C917F
:1002C00085FFF2CF808185FFEDCFCE010E94DD005A
:1002D000E9CFDF91CF9108958E3008F08E5087706E
:1002E000806480937C0080917A00806480937A009F
:1002F00080917A0086FDFCCF809178009091790002
:1003000008953FB7F89480911B0190911C01A09132
:100310001D01B0911E0126B5A89B05C02F3F19F005
:100320000196A11DB11D3FBFBA2FA92F982F882775
:10033000BC01CD01620F711D811D911D42E0660F50
:10034000771F881F991F4A95D1F708958F929F9222
:10035000AF92BF92CF92DF92EF92FF924B015C017E
:100360000E9481016B017C010E9481016C197D0951
:100370008E099F09683E734081059105A8F321E02D
:10038000821A9108A108B10888EEC80E83E0D81E31
:10039000E11CF11C81149104A104B10429F7FF9020
:1003A000EF90DF90CF90BF90AF909F908F90089587
:1003B0008F929F92AF92BF920F931F93CF93DF9331
:1003C000CDB7DEB7A1970FB6F894DEBF0FBECDBF95
:1003D00019A2423008F44AE08E010F5D1F4F842EAF
:1003E000912CB12CA12CA50194010E940B04E62FA5
:1003F000B901CA01EA3044F5E05DD801EE938D0100
:10040000232B242B252B79F790E080E0109769F0BF
:10041000FD0101900020E9F73197AF014A1B5B0B0A
:10042000BD0185E291E00E945F00A1960FB6F894AD
:10043000DEBF0FBECDBFDF91CF911F910F91BF9057
:10044000AF909F908F900895E95CD7CFCF92DF92C5
:10045000EF92FF92CF93DF936B017C016DE285E217
:1004600091E00E94FF00EC0166277727CB016C1911
:100470007D098E099F094AE00E94D8018C0F9D1FBB
:10048000DF91CF91FF90EF90DF90CF90089542E001
:1004900050E062E171E085E291E00C945F001F9210
:1004A0000F920FB60F9211242F933F934F935F93A8
:1004B0006F937F938F939F93AF93BF93EF93FF932C
:1004C00085E291E00E94DD00FF91EF91BF91AF9135
:1004D0009F918F917F916F915F914F913F912F915C
:1004E0000F900FBE0F901F9018951F920F920FB68E
:1004F0000F9211242F938F939F93EF93FF93E0918B
:100500003501F09136018081E0913B01F0913C0191
:1005100082FD1BC0908180913E018F5F8F7320917F
:100520003F01821741F0E0913E01F0E0EB5DFE4FAC
:10053000958F80933E01FF91EF919F918F912F9125
:100540000F900FBE0F901F9018958081F4CF1F92CF
:100550000F920FB60F9211242F933F938F939F9377
:10056000AF93BF938091170190911801A091190149
:10057000B0911A013091160123E0230F2D3758F561
:100580000196A11DB11D2093160180931701909330
:100590001801A0931901B0931A0180911B01909149
:1005A0001C01A0911D01B0911E010196A11DB11D5C
:1005B00080931B0190931C01A0931D01B0931E0119
:1005C000BF91AF919F918F913F912F910F900FBE4F
:1005D0000F901F90189526E8230F0296A11DB11DBC
:1005E000D2CF789484B5826084BD84B5816084BDA7
:1005F00085B5826085BD85B5816085BD80916E00C1
:10060000816080936E0010928100809181008260F1
:10061000809381008091810081608093810080912E
:1006200080008160809380008091B100846080931D
:10063000B1008091B00081608093B00080917A0019
:10064000846080937A0080917A00826080937A003F
:1006500080917A00816080937A0080917A0080682E
:1006600080937A001092C10060E177E280E090E030
:100670000E94A601E0913501F091360182E080836D
:10068000E0913101F09132011082E0913301F0915B
:1006900034018FEC808310923D01E0913901F0919B
:1006A0003A0186E08083E0913701F0913801808142
:1006B00080618083E0913701F0913801808188600A
:1006C0008083E0913701F0913801808180688083D8
:1006D000E0913701F091380180818F7D808300E0C7
:1006E00010E0109224011092230180912301909137
:1006F000240104970CF58EE00E946C01BC01990F57
:10070000880B990B97FF14C00E9426020E94470293
:1007100068EE73E080E090E00E94A60180912301E2
:100720009091240101969093240180932301DDCFC1
:100730004AE00E94D801EACF1092220110922101D2
:100740008091210190912201049764F582E10E9439
:100750006C01EC019093200180931F0183E10E94C2
:100760006C01BE01681B790B072E000C880B990BDE
:1007700097FF14C00E9426020E94470268EE73E0B1
:1007800080E090E00E94A6018091210190912201D9
:1007900001969093220180932101D2CF4AE00E94DA
:1007A000D801EACF0115110509F49BCF0E94C900B9
:1007B000882309F496CF0E94000093CFE5E2F1E090
:1007C0001382128288EE93E0A0E0B0E084839583E8
:1007D000A683B78384E091E09183808385EC90E0E9
:1007E0009587848784EC90E09787868780EC90E0FB
:1007F000918B808B81EC90E0938B828B82EC90E0EC
:10080000958B848B86EC90E0978B868B118E128E65
:10081000138E148E0895A1E21A2EAA1BBB1BFD0194
:100820000DC0AA1FBB1FEE1FFF1FA217B307E407CF
:10083000F50720F0A21BB30BE40BF50B661F771F27
:10084000881F991F1A9469F7609570958095909507
:100850009B01AC01BD01CF010895EE0FFF1F059074
:0A086000F491E02D0994F894FFCF05
:10086A0000000000FF005F008C004C01BD009B00EF
:06087A00AF000D0A0000B2
:00000001FF
